{
    "contractName": "YesNoVoting",
    "abi": [
        {
            "inputs": [],
            "payable": false,
            "stateMutability": "nonpayable",
            "type": "constructor"
        },
        {
            "constant": false,
            "inputs": [
                {
                    "internalType": "address",
                    "name": "toVoter",
                    "type": "address"
                }
            ],
            "name": "giveRightToVote",
            "outputs": [],
            "payable": false,
            "stateMutability": "nonpayable",
            "type": "function"
        },
        {
            "constant": false,
            "inputs": [
                {
                    "internalType": "uint8",
                    "name": "toProposal",
                    "type": "uint8"
                }
            ],
            "name": "vote",
            "outputs": [],
            "payable": false,
            "stateMutability": "nonpayable",
            "type": "function"
        },
        {
            "constant": true,
            "inputs": [],
            "name": "winningProposal",
            "outputs": [
                {
                    "internalType": "uint8",
                    "name": "_winningProposal",
                    "type": "uint8"
                }
            ],
            "payable": false,
            "stateMutability": "view",
            "type": "function"
        }
    ],
    "bytecode": "608060405234801561001057600080fd5b50600080546001600160a01b03191633179055610208806100326000396000f3fe608060405234801561001057600080fd5b50600436106100415760003560e01c8063609ff1bd146100465780639e7b8d6114610064578063b3f98adc1461008c575b600080fd5b61004e6100ac565b6040805160ff9092168252519081900360200190f35b61008a6004803603602081101561007a57600080fd5b50356001600160a01b03166100fc565b005b61008a600480360360208110156100a257600080fd5b503560ff16610167565b600080805b60028160ff1610156100f7578160028260ff16600281106100ce57fe5b015411156100ef5760028160ff16600281106100e657fe5b01549092509050815b6001016100b1565b505090565b6000546001600160a01b03163314158061013457506001600160a01b03811660009081526001602052604090205462010000900460ff165b1561013e57610164565b6001600160a01b0381166000908152600160205260409020805461ff0019166101001790555b50565b336000908152600160205260409020805462010000900460ff16801561019457508054610100900460ff16155b1561019f5750610164565b80546201000062ff0000199091161760ff191660ff831690811782556002908181106101c757fe5b0180546001019055505056fea265627a7a723158204a666f53bc295006bc6263d5bfde2031c275a2ea129f9450f9c117efb5462a6a64736f6c634300050d0032",
    "sourcePath": "/home/tsenko/Desktop/VotingTutorial/contracts/YesNoVoting.sol",
    "compiler": {
        "name": "solc",
        "version": "0.5.13+commit.5b0b510c"
    },
    "functionHashes": {
        "giveRightToVote(address)": "9e7b8d61",
        "vote(uint8)": "b3f98adc",
        "winningProposal()": "609ff1bd"
    },
    "gasEstimates": {
        "creation": {
            "codeDepositCost": "104000",
            "executionCost": "20388",
            "totalCost": "124388"
        },
        "external": {
            "giveRightToVote(address)": "21090",
            "vote(uint8)": "41269",
            "winningProposal()": "infinite"
        }
    }
}