{
  "contractName": "Organise",
  "abi": [
    {
      "inputs": [],
      "payable": false,
      "stateMutability": "nonpayable",
      "type": "constructor"
    },
    {
      "constant": false,
      "inputs": [
        {
          "internalType": "address",
          "name": "Address",
          "type": "address"
        }
      ],
      "name": "addAddresses",
      "outputs": [
        {
          "internalType": "address",
          "name": "",
          "type": "address"
        }
      ],
      "payable": false,
      "stateMutability": "nonpayable",
      "type": "function"
    }
  ],
  "bytecode": "0x608060405234801561001057600080fd5b5033600a60006101000a81548173ffffffffffffffffffffffffffffffffffffffff021916908373ffffffffffffffffffffffffffffffffffffffff160217905550600a60009054906101000a900473ffffffffffffffffffffffffffffffffffffffff16600080600a811061008257fe5b0160006101000a81548173ffffffffffffffffffffffffffffffffffffffff021916908373ffffffffffffffffffffffffffffffffffffffff160217905550610389806100d06000396000f3fe608060405234801561001057600080fd5b506004361061002b5760003560e01c806390085b1914610030575b600080fd5b6100726004803603602081101561004657600080fd5b81019080803573ffffffffffffffffffffffffffffffffffffffff1690602001909291905050506100b4565b604051808273ffffffffffffffffffffffffffffffffffffffff1673ffffffffffffffffffffffffffffffffffffffff16815260200191505060405180910390f35b6000600a60009054906101000a900473ffffffffffffffffffffffffffffffffffffffff1673ffffffffffffffffffffffffffffffffffffffff163373ffffffffffffffffffffffffffffffffffffffff161461015c576040517f08c379a000000000000000000000000000000000000000000000000000000000815260040180806020018281038252602981526020018061030a6029913960400191505060405180910390fd5b60008090505b600a81101561022b578273ffffffffffffffffffffffffffffffffffffffff16600082600a811061018f57fe5b0160009054906101000a900473ffffffffffffffffffffffffffffffffffffffff1673ffffffffffffffffffffffffffffffffffffffff16141561021e576040517f08c379a00000000000000000000000000000000000000000000000000000000081526004018080602001828103825260228152602001806103336022913960400191505060405180910390fd5b8080600101915050610162565b506000600190505b600a81101561030257600073ffffffffffffffffffffffffffffffffffffffff16600082600a811061026157fe5b0160009054906101000a900473ffffffffffffffffffffffffffffffffffffffff1673ffffffffffffffffffffffffffffffffffffffff1614156102f55782600082600a81106102ad57fe5b0160006101000a81548173ffffffffffffffffffffffffffffffffffffffff021916908373ffffffffffffffffffffffffffffffffffffffff16021790555082915050610304565b8080600101915050610233565b505b91905056fe4f6e6c7920746865206f7267616e697365722063616e2063616c6c207468732066756e6374696f6e2e54686520416464726573732068617320616c7265616479206265656e206164646564a265627a7a723158200404b982dc004dccc6a72c23f8c8bdb260f1019ce5d2937b610175968c654fe164736f6c634300050c0032",
  "source": "pragma solidity >= 0.5.0 < 0.7.0;\n\ncontract Organise {\n    address[10] addresses;\n    address organiser;\n\n    constructor() public {\n        organiser = msg.sender;\n        addresses[0] = organiser;\n    }\n\n    modifier onlyOrganiser {\n        require(\n            msg.sender == organiser,\n             \"Only the organiser can call ths function.\"\n        );\n        _;\n    }\n\n    function addAddresses(address Address) public onlyOrganiser returns(address) {\n        for(uint i = 0; i<addresses.length; i++) {\n            if(addresses[i] == Address) {\n                revert(\"The Address has already been added\");\n            }\n        }\n        for(uint i = 1; i<addresses.length; i++) {\n            if(addresses[i] == 0x0000000000000000000000000000000000000000) {\n                addresses[i] = Address;\n                return Address;\n            }\n        }\n\n    }\n}",
  "sourcePath": "/home/tsenko/Documents/LarningSmartContracts/VotingTutorial/contracts/Organise.sol",
  "compiler": {
    "name": "solc",
    "version": "0.5.12+commit.7709ece9.Emscripten.clang"
  },
  "schemaVersion": "3.0.19",
  "updatedAt": "2019-12-06T09:59:16.052Z",
  "networkType": "ethereum",
  "devdoc": {
    "methods": {}
  },
  "userdoc": {
    "methods": {}
  }
}