{
  "contractName": "YesNoVoting",
  "abi": [
    {
      "constant": true,
      "inputs": [
        {
          "internalType": "uint8",
          "name": "toProposal",
          "type": "uint8"
        }
      ],
      "name": "getVoteCount",
      "outputs": [
        {
          "internalType": "uint256",
          "name": "",
          "type": "uint256"
        }
      ],
      "payable": false,
      "stateMutability": "view",
      "type": "function"
    },
    {
      "constant": false,
      "inputs": [
        {
          "internalType": "uint8",
          "name": "toProposal",
          "type": "uint8"
        }
      ],
      "name": "vote",
      "outputs": [],
      "payable": false,
      "stateMutability": "nonpayable",
      "type": "function"
    },
    {
      "constant": true,
      "inputs": [],
      "name": "winningProposal",
      "outputs": [
        {
          "internalType": "uint8",
          "name": "_winningProposal",
          "type": "uint8"
        }
      ],
      "payable": false,
      "stateMutability": "view",
      "type": "function"
    }
  ],
  "bytecode": "0x608060405234801561001057600080fd5b50610257806100206000396000f3fe608060405234801561001057600080fd5b50600436106100415760003560e01c8063609ff1bd146100465780639c6147d01461006a578063b3f98adc146100af575b600080fd5b61004e6100e0565b604051808260ff1660ff16815260200191505060405180910390f35b6100996004803603602081101561008057600080fd5b81019080803560ff169060200190929190505050610142565b6040518082815260200191505060405180910390f35b6100de600480360360208110156100c557600080fd5b81019080803560ff169060200190929190505050610160565b005b6000806000905060008090505b60028160ff16101561013d578160018260ff166002811061010a57fe5b016000015411156101305760018160ff166002811061012557fe5b016000015491508092505b80806001019150506100ed565b505090565b600060018260ff166002811061015457fe5b01600001549050919050565b60008060003373ffffffffffffffffffffffffffffffffffffffff1673ffffffffffffffffffffffffffffffffffffffff16815260200190815260200160002090508060000160019054906101000a900460ff16156101bf575061021f565b60018160000160016101000a81548160ff021916908315150217905550818160000160006101000a81548160ff021916908360ff16021790555060018260ff166002811061020957fe5b0160000160008154809291906001019190505550505b5056fea265627a7a723158200a61f6018b8e5126f2dc15777e356bc3063fe60a5320839dd1a466e341ef33ba64736f6c634300050c0032",
  "source": "pragma solidity >=0.4.22 <0.6.0;\n\ncontract YesNoVoting {\n    struct Voter {\n        uint8 vote;\n        bool voted;\n    }\n\n    struct Proposal {\n        uint voteCount;\n    }\n\n    mapping(address => Voter) voters;\n\n    Proposal[2] proposals;\n\n    function getVoteCount(uint8 toProposal) public view returns (uint256){\n        return proposals[toProposal].voteCount;\n    }\n\n    function vote(uint8 toProposal) public {\n        Voter storage sender = voters[msg.sender];\n        if (sender.voted) return;\n        sender.voted = true;\n        sender.vote = toProposal;\n        proposals[toProposal].voteCount++;\n    }\n\n    function winningProposal() public view returns (uint8 _winningProposal) {\n        uint256 winningVoteCount = 0;\n        for (uint8 prop = 0; prop < proposals.length; prop++)\n            if (proposals[prop].voteCount > winningVoteCount) {\n                winningVoteCount = proposals[prop].voteCount;\n                _winningProposal = prop;\n            }\n    }\n}",
  "sourcePath": "/home/tsenko/Documents/LarningSmartContracts/VotingTutorial/contracts/YesNoVoting.sol",
  "compiler": {
    "name": "solc",
    "version": "0.5.12+commit.7709ece9.Emscripten.clang"
  },
  "schemaVersion": "3.0.19",
  "updatedAt": "2019-12-06T07:38:04.557Z",
  "devdoc": {
    "methods": {}
  },
  "userdoc": {
    "methods": {}
  }
}